:0A07F50000010202030304040505DD
:10059A00E4F513F512F511F510C203C200C202C246
:1005AA0001120C4B1208B87E017F008E238F24752E
:1005BA002B01752C1275210175221C752901752ACA
:1005CA004A752D01752E7890E680E030E70E852178
:1005DA0025852226852927852A28800C852925858F
:1005EA002A26852127852228EE54E0700302071067
:1005FA007514007515807E017F008E168F17C374DF
:10060A009C9FFF74019ECF2402CF3400FEE48F0F1B
:10061A008E0EF50DF50CF50BF50AF509F508AF0F79
:10062A00AE0EAD0DAC0CAB0BAA0AA909A808C312F1
:10063A000AD8502AE515250BF582E514350AF58303
:10064A0074CDF0E4FAF9F8E50B2401F50BEA350A62
:10065A00F50AE93509F509E83508F50880C0E4F531
:10066A000BF50AF509F508AF0FAE0EAD0DAC0CABE4
:10067A000BAA0AA909A808C3120AD85037E51725F0
:10068A000BF582E516350AF583E0FFE515250BF52E
:10069A0082E514350AF583EFF0E4FAF9F8E50B245C
:1006AA0001F50BEA350AF50AE93509F509E83508CD
:1006BA00F50880B385142385152474002480FF74FB
:1006CA000134FFFEC3E52C9FF52CE52B9EF52BC3C9
:1006DA00E5269FF526E5259EF525C3E5289FF528FD
:1006EA00E5279EF527C3E5229FF522E5219EF52100
:1006FA00C3E52A9FF52AE5299EF529C3E52E9FF52C
:10070A002EE52D9EF52DD2E843D82090E668E044E8
:10071A0009F090E65CE0443DF0D2AF90E680E0203C
:10072A00E105D205120B0990E680E054F7F0538EEA
:10073A00F8C203300105120300C201300329120C6A
:10074A00685024C203120B8F20001690E682E03014
:10075A00E704E020E1EF90E682E030E604E020E002
:0C076A00E4120B38120C6A120BE480C77A
:010776002260
:1003000090E6B9E070030203DC1470030204852454
:10031000FE700302051A24FB70030203D614700357
:100320000203D01470030203C41470030203CA242E
:10033000056003020586120C6C400302059290E6EC
:10034000BBE024FE602C14604724FD60161460316D
:1003500024067066E52390E6B3F0E52490E6B4F059
:10036000020592E52B90E6B3F0E52C90E6B4F0029E
:100370000592E52590E6B3F0E52690E6B4F0020597
:1003800092E52790E6B3F0E52890E6B4F0020592F6
:1003900090E6BAE0FF120B64AA06A9077B01EA49BE
:1003A0004B600DEE90E6B3F0EF90E6B4F0020592EC
:1003B00090E6A0E04401F002059290E6A0E044013E
:1003C000F0020592120C39020592120C59020592A4
:1003D0001209DB020592120C27020592120C6E40E4
:1003E0000302059290E6B8E0247F602B14603C2461
:1003F00002600302047BA200E433FF25E0FFA202B7
:10040000E4334F90E740F0E4A3F090E68AF090E602
:100410008B7402F0020592E490E740F0A3F090E6BE
:100420008AF090E68B7402F002059290E6BCE054EC
:100430007EFF7E00E0D3948040067C007D01800436
:100440007C007D00EC4EFEED4F24F5F58274073EF6
:10045000F583E493FF3395E0FEEF24A1FFEE34E64D
:100460008F82F583E0540190E740F0E4A3F090E63A
:100470008AF090E68B7402F002059290E6A0E044C8
:1004800001F0020592120C70400302059290E6B84A
:10049000E024FE601D2402600302059290E6BAE0AB
:1004A000B40105C20002059290E6A0E04401F0020A
:1004B000059290E6BAE0705990E6BCE0547EFF7E6B
:1004C00000E0D3948040067C007D0180047C007DA8
:1004D00000EC4EFEED4F24F5F58274073EF583E403
:1004E00093FF3395E0FEEF24A1FFEE34E68F82F513
:1004F00083E054FEF090E6BCE05480FF13131354E5
:100500001FFFE0540F2F90E683F0E04420F0020537
:100510009290E6A0E04401F08078120C7250739043
:10052000E6B8E024FE60202402706790E6BAE0B4EA
:100530000104D200805C90E6BAE06402605490E668
:10054000A0E04401F0804B90E6BCE0547EFF7E00CA
:10055000E0D3948040067C007D0180047C007D0017
:10056000EC4EFEED4F24F5F58274073EF583E493DF
:10057000FF3395E0FEEF24A1FFEE34E68F82F58392
:10058000E04401F0800C120777500790E6A0E044A9
:0905900001F090E6A0E04480F0C7
:01059900223F
:03003300020C615B
:040C610053D8EF3243
:100100001201000200000040B404102000000102AF
:1001100000010A06000200000040010009022E0052
:10012000010100A0320904000004FF0000000705DF
:100130000202000200070586020002000705040211
:100140000002000705880200020009022E000101DA
:1001500000A0320904000004FF00000007050202AD
:100160004000000705860240000007050402400029
:100170000007058802400000040309040A03460042
:10018000530044005200160346005300440052003E
:0E019000200062006F00610072006400000039
:020C6500C104C8
:1008B80090E6007412F090E6017403F090E602747A
:1008C80098F000000090E60374EFF000000090E656
:1008D80070E04480F000000090E61274A2F000007E
:1008E8000090E61474E2F000000090E61374A0F0A3
:1008F80000000090E61574E0F000000090E6047433
:1009080080F00000007402F00000007404F00000A1
:10091800007406F00000007408F0000000E4F00025
:10092800000090E618F00000007411F0000000903C
:10093800E619F000000090E61A740DF0000000902F
:07094800E61BF00000002295
:100BE40030810A90E680E04408F0C2802290E680DA
:070BF400E054F7F0D280226B
:020C6800D32295
:020C6A00D32293
:020C6C00D32291
:1009DB0090E680E030E71E90E6247402F000000001
:1009EB0090E626F0000000E490E625F00000009071
:1009FB00E627F0801CE490E624F000000090E62649
:100A0B00F000000090E6257440F000000090E6270F
:090A1B00F090E6BAE0F51FD322C9
:100C270090E740E51FF0E490E68AF090E68B04F049
:020C3700D322C6
:080C590090E6BAE0F51ED3227B
:100C390090E740E51EF0E490E68AF090E68B04F038
:020C4900D322B4
:020C6E00D3228F
:020C7000D3228D
:020C7200D3228B
:1007770090E6B9E0244D603A04705890E60474801E
:10078700F00000007402F0000000E4F000000090A8
:10079700E740E5ACF090E6ACE090E741F0E490E6A6
:1007A7008AF090E68B7402F090E6A0E04480F0D2E5
:1007B700042290E740E5ACF090E6ACE090E741F02A
:1007C700E490E68AF090E68B7402F090E6A0E044AD
:0507D70080F022D32296
:100BB400C0E0C083C082D2015391EF90E65D74011E
:080BC400F0D082D083D0E032B2
:100BFB00C0E0C083C0825391EF90E65D7404F0D0E7
:060C0B0082D083D0E0322C
:100C1100C0E0C083C0825391EF90E65D7402F0D0D2
:060C210082D083D0E03216
:100A6A00C0E0C083C08290E680E030E70E85212591
:100A7A00852226852927852A28800C852925852AE5
:100A8A00268521278522285391EF90E65D7410F080
:070A9A00D082D083D0E032CE
:100BCC00C0E0C083C082D2035391EF90E65D7408FD
:080BDC00F0D082D083D0E0329A
:100AA100C0E0C083C08290E680E030E70E8521255A
:100AB100852226852927852A28800C852925852AAE
:100AC100268521278522285391EF90E65D7420F039
:070AD100D082D083D0E03297
:0107FF0032C7
:010C7400324D
:010C7500324C
:010C7600324B
:010C7700324A
:010C78003249
:010C79003248
:010C7A003247
:010C7B003246
:010C7C003245
:010C7D003244
:010C7E003243
:010C7F003242
:010C80003241
:010C81003240
:010C8200323F
:010C8300323E
:010C8400323D
:010C8500323C
:010C8600323B
:010C8700323A
:010C88003239
:010C89003238
:010C8A003237
:010C8B003236
:010C8C003235
:010C8D003234
:010C8E003233
:010C8F003232
:010C90003231
:010C91003230
:010C9200322F
:010C9300322E
:010C9400322D
:010C9500322C
:010C9600322B
:03004300020800B0
:03005300020800A0
:10080000020BB400020C1100020BFB00020BCC0027
:10081000020A6A00020AA1000207FF00020C74002B
:10082000020C7500020C7600020C7700020C7800B6
:10083000020C7900020C7A00020C7B00020C7C0096
:10084000020C7D00020C7400020C7E00020C7F0082
:10085000020C8000020C8100020C8200020C83005A
:10086000020C8400020C7400020C7400020C740070
:10087000020C8500020C8600020C8700020C880026
:10088000020C8900020C8A00020C8B00020C8C0006
:10089000020C8D00020C8E00020C8F00020C9000E6
:1008A000020C9100020C9200020C9300020C9400C6
:0808B000020C9500020C9600F9
:100B380090E682E030E004E020E60B90E682E030C8
:100B4800E119E030E71590E680E04401F07F147E7B
:0C0B580000120A2490E680E054FEF02217
:100B090030050990E680E0440AF0800790E680E02D
:100B19004408F07FDC7E05120A2490E65D74FFF03C
:0F0B290090E65FF05391EF90E680E054F7F022F2
:020B6400A907DF
:100B6600AE2DAF2E8F828E83A3E064037017AD0186
:100B760019ED7001228F828E83E07C002FFDEC3E02
:080B8600FEAF0580DFE4FEFF75
:010B8E002244
:100B8F0090E682E044C0F090E681F04387010000D8
:040B9F000000002230
:100A24008E188F1990E600E054187012E51924010D
:100A3400FFE43518C313F518EF13F519801590E684
:100A440000E05418FFBF100BE51925E0F519E5186F
:100A540033F518E5191519AE18700215184E60050E
:060A6400120BA380EE223C
:100BA3007400F58690FDA57C05A3E582458370F965
:010BB300221F
:0E0C4B0090E670E054FCF043B20153B2FD227B
:1007DC008F1D8E1C8D1B8C1A781A74FF120AEBEC71
:0907EC004D4E4F60030080F02225
:0300000002094FA3
:0C094F00787FE4F6D8FD75812E02099631
:100AD800EB9FF5F0EA9E42F0E99D42F0E89C45F074
:010AE80022EB
:100AE9007401FF3395E0FEFDFC080808E6CF2FF6F8
:100AF90018E6CE3EF618E6CD3DF618E6CC3CF622D1
:10095B0002059AE493A3F8E493A34003F68001F213
:10096B0008DFF48029E493A3F85407240CC8C3339D
:10097B00C4540F4420C8834004F456800146F6DF6C
:10098B00E4800B0102040810204080900C65E47E8B
:10099B00019360BCA3FF543F30E509541FFEE49361
:1009AB00A360010ECF54C025E060A840B8E493A328
:1009BB00FAE493A3F8E493A3C8C582C8CAC583CA53
:1009CB00F0A3C8C582C8CAC583CADFE9DEE780BE0B
:010C6700008C
:00000001FF
